{
  "contractName": "AdvanceCollectibles",
  "abi": [
    {
      "inputs": [
        {
          "internalType": "address",
          "name": "_vrfCoordinatorAddress",
          "type": "address"
        },
        {
          "internalType": "address",
          "name": "_linkTokenAddress",
          "type": "address"
        },
        {
          "internalType": "bytes32",
          "name": "_keyHash",
          "type": "bytes32"
        }
      ],
      "stateMutability": "nonpayable",
      "type": "constructor"
    },
    {
      "anonymous": false,
      "inputs": [
        {
          "indexed": true,
          "internalType": "address",
          "name": "owner",
          "type": "address"
        },
        {
          "indexed": true,
          "internalType": "address",
          "name": "approved",
          "type": "address"
        },
        {
          "indexed": true,
          "internalType": "uint256",
          "name": "tokenId",
          "type": "uint256"
        }
      ],
      "name": "Approval",
      "type": "event"
    },
    {
      "anonymous": false,
      "inputs": [
        {
          "indexed": true,
          "internalType": "address",
          "name": "owner",
          "type": "address"
        },
        {
          "indexed": true,
          "internalType": "address",
          "name": "operator",
          "type": "address"
        },
        {
          "indexed": false,
          "internalType": "bool",
          "name": "approved",
          "type": "bool"
        }
      ],
      "name": "ApprovalForAll",
      "type": "event"
    },
    {
      "anonymous": false,
      "inputs": [
        {
          "indexed": true,
          "internalType": "bytes32",
          "name": "requestId",
          "type": "bytes32"
        }
      ],
      "name": "RequestCollectible",
      "type": "event"
    },
    {
      "anonymous": false,
      "inputs": [
        {
          "indexed": false,
          "internalType": "bytes32",
          "name": "requestId",
          "type": "bytes32"
        }
      ],
      "name": "RequestedRandomness",
      "type": "event"
    },
    {
      "anonymous": false,
      "inputs": [
        {
          "indexed": true,
          "internalType": "address",
          "name": "from",
          "type": "address"
        },
        {
          "indexed": true,
          "internalType": "address",
          "name": "to",
          "type": "address"
        },
        {
          "indexed": true,
          "internalType": "uint256",
          "name": "tokenId",
          "type": "uint256"
        }
      ],
      "name": "Transfer",
      "type": "event"
    },
    {
      "anonymous": false,
      "inputs": [
        {
          "indexed": false,
          "internalType": "bytes32",
          "name": "requestId",
          "type": "bytes32"
        }
      ],
      "name": "myEvent",
      "type": "event"
    },
    {
      "anonymous": false,
      "inputs": [
        {
          "indexed": false,
          "internalType": "uint256",
          "name": "id",
          "type": "uint256"
        },
        {
          "indexed": false,
          "internalType": "string",
          "name": "nftUri",
          "type": "string"
        },
        {
          "indexed": false,
          "internalType": "string",
          "name": "desc",
          "type": "string"
        },
        {
          "indexed": false,
          "internalType": "address",
          "name": "uploader",
          "type": "address"
        }
      ],
      "name": "nftUploadedEvent",
      "type": "event"
    },
    {
      "inputs": [],
      "name": "LinkToken",
      "outputs": [
        {
          "internalType": "address",
          "name": "",
          "type": "address"
        }
      ],
      "stateMutability": "view",
      "type": "function",
      "constant": true
    },
    {
      "inputs": [
        {
          "internalType": "address",
          "name": "to",
          "type": "address"
        },
        {
          "internalType": "uint256",
          "name": "tokenId",
          "type": "uint256"
        }
      ],
      "name": "approve",
      "outputs": [],
      "stateMutability": "nonpayable",
      "type": "function"
    },
    {
      "inputs": [
        {
          "internalType": "address",
          "name": "owner",
          "type": "address"
        }
      ],
      "name": "balanceOf",
      "outputs": [
        {
          "internalType": "uint256",
          "name": "",
          "type": "uint256"
        }
      ],
      "stateMutability": "view",
      "type": "function",
      "constant": true
    },
    {
      "inputs": [],
      "name": "baseURI",
      "outputs": [
        {
          "internalType": "string",
          "name": "",
          "type": "string"
        }
      ],
      "stateMutability": "view",
      "type": "function",
      "constant": true
    },
    {
      "inputs": [],
      "name": "checkEx",
      "outputs": [
        {
          "internalType": "string",
          "name": "",
          "type": "string"
        }
      ],
      "stateMutability": "view",
      "type": "function",
      "constant": true
    },
    {
      "inputs": [
        {
          "internalType": "uint256",
          "name": "tokenId",
          "type": "uint256"
        }
      ],
      "name": "getApproved",
      "outputs": [
        {
          "internalType": "address",
          "name": "",
          "type": "address"
        }
      ],
      "stateMutability": "view",
      "type": "function",
      "constant": true
    },
    {
      "inputs": [
        {
          "internalType": "address",
          "name": "owner",
          "type": "address"
        },
        {
          "internalType": "address",
          "name": "operator",
          "type": "address"
        }
      ],
      "name": "isApprovedForAll",
      "outputs": [
        {
          "internalType": "bool",
          "name": "",
          "type": "bool"
        }
      ],
      "stateMutability": "view",
      "type": "function",
      "constant": true
    },
    {
      "inputs": [],
      "name": "mockVar",
      "outputs": [
        {
          "internalType": "string",
          "name": "",
          "type": "string"
        }
      ],
      "stateMutability": "view",
      "type": "function",
      "constant": true
    },
    {
      "inputs": [],
      "name": "name",
      "outputs": [
        {
          "internalType": "string",
          "name": "",
          "type": "string"
        }
      ],
      "stateMutability": "view",
      "type": "function",
      "constant": true
    },
    {
      "inputs": [],
      "name": "nftCount",
      "outputs": [
        {
          "internalType": "uint256",
          "name": "",
          "type": "uint256"
        }
      ],
      "stateMutability": "view",
      "type": "function",
      "constant": true
    },
    {
      "inputs": [
        {
          "internalType": "uint256",
          "name": "",
          "type": "uint256"
        }
      ],
      "name": "nfts",
      "outputs": [
        {
          "internalType": "uint256",
          "name": "id",
          "type": "uint256"
        },
        {
          "internalType": "string",
          "name": "nftUri",
          "type": "string"
        },
        {
          "internalType": "string",
          "name": "desc",
          "type": "string"
        },
        {
          "internalType": "address",
          "name": "author",
          "type": "address"
        }
      ],
      "stateMutability": "view",
      "type": "function",
      "constant": true
    },
    {
      "inputs": [
        {
          "internalType": "uint256",
          "name": "tokenId",
          "type": "uint256"
        }
      ],
      "name": "ownerOf",
      "outputs": [
        {
          "internalType": "address",
          "name": "",
          "type": "address"
        }
      ],
      "stateMutability": "view",
      "type": "function",
      "constant": true
    },
    {
      "inputs": [],
      "name": "randNum",
      "outputs": [
        {
          "internalType": "uint256",
          "name": "",
          "type": "uint256"
        }
      ],
      "stateMutability": "view",
      "type": "function",
      "constant": true
    },
    {
      "inputs": [],
      "name": "randomResult",
      "outputs": [
        {
          "internalType": "uint256",
          "name": "",
          "type": "uint256"
        }
      ],
      "stateMutability": "view",
      "type": "function",
      "constant": true
    },
    {
      "inputs": [
        {
          "internalType": "bytes32",
          "name": "requestId",
          "type": "bytes32"
        },
        {
          "internalType": "uint256",
          "name": "randomness",
          "type": "uint256"
        }
      ],
      "name": "rawFulfillRandomness",
      "outputs": [],
      "stateMutability": "nonpayable",
      "type": "function"
    },
    {
      "inputs": [
        {
          "internalType": "bytes32",
          "name": "",
          "type": "bytes32"
        }
      ],
      "name": "requestIdToSender",
      "outputs": [
        {
          "internalType": "address",
          "name": "",
          "type": "address"
        }
      ],
      "stateMutability": "view",
      "type": "function",
      "constant": true
    },
    {
      "inputs": [
        {
          "internalType": "bytes32",
          "name": "",
          "type": "bytes32"
        }
      ],
      "name": "requestIdToTokenId",
      "outputs": [
        {
          "internalType": "uint256",
          "name": "",
          "type": "uint256"
        }
      ],
      "stateMutability": "view",
      "type": "function",
      "constant": true
    },
    {
      "inputs": [
        {
          "internalType": "bytes32",
          "name": "",
          "type": "bytes32"
        }
      ],
      "name": "requestIdToTokenURI",
      "outputs": [
        {
          "internalType": "string",
          "name": "",
          "type": "string"
        }
      ],
      "stateMutability": "view",
      "type": "function",
      "constant": true
    },
    {
      "inputs": [
        {
          "internalType": "address",
          "name": "from",
          "type": "address"
        },
        {
          "internalType": "address",
          "name": "to",
          "type": "address"
        },
        {
          "internalType": "uint256",
          "name": "tokenId",
          "type": "uint256"
        }
      ],
      "name": "safeTransferFrom",
      "outputs": [],
      "stateMutability": "nonpayable",
      "type": "function"
    },
    {
      "inputs": [
        {
          "internalType": "address",
          "name": "from",
          "type": "address"
        },
        {
          "internalType": "address",
          "name": "to",
          "type": "address"
        },
        {
          "internalType": "uint256",
          "name": "tokenId",
          "type": "uint256"
        },
        {
          "internalType": "bytes",
          "name": "_data",
          "type": "bytes"
        }
      ],
      "name": "safeTransferFrom",
      "outputs": [],
      "stateMutability": "nonpayable",
      "type": "function"
    },
    {
      "inputs": [
        {
          "internalType": "address",
          "name": "operator",
          "type": "address"
        },
        {
          "internalType": "bool",
          "name": "approved",
          "type": "bool"
        }
      ],
      "name": "setApprovalForAll",
      "outputs": [],
      "stateMutability": "nonpayable",
      "type": "function"
    },
    {
      "inputs": [
        {
          "internalType": "bytes4",
          "name": "interfaceId",
          "type": "bytes4"
        }
      ],
      "name": "supportsInterface",
      "outputs": [
        {
          "internalType": "bool",
          "name": "",
          "type": "bool"
        }
      ],
      "stateMutability": "view",
      "type": "function",
      "constant": true
    },
    {
      "inputs": [],
      "name": "symbol",
      "outputs": [
        {
          "internalType": "string",
          "name": "",
          "type": "string"
        }
      ],
      "stateMutability": "view",
      "type": "function",
      "constant": true
    },
    {
      "inputs": [
        {
          "internalType": "uint256",
          "name": "index",
          "type": "uint256"
        }
      ],
      "name": "tokenByIndex",
      "outputs": [
        {
          "internalType": "uint256",
          "name": "",
          "type": "uint256"
        }
      ],
      "stateMutability": "view",
      "type": "function",
      "constant": true
    },
    {
      "inputs": [],
      "name": "tokenCounter",
      "outputs": [
        {
          "internalType": "uint256",
          "name": "",
          "type": "uint256"
        }
      ],
      "stateMutability": "view",
      "type": "function",
      "constant": true
    },
    {
      "inputs": [
        {
          "internalType": "address",
          "name": "owner",
          "type": "address"
        },
        {
          "internalType": "uint256",
          "name": "index",
          "type": "uint256"
        }
      ],
      "name": "tokenOfOwnerByIndex",
      "outputs": [
        {
          "internalType": "uint256",
          "name": "",
          "type": "uint256"
        }
      ],
      "stateMutability": "view",
      "type": "function",
      "constant": true
    },
    {
      "inputs": [
        {
          "internalType": "uint256",
          "name": "tokenId",
          "type": "uint256"
        }
      ],
      "name": "tokenURI",
      "outputs": [
        {
          "internalType": "string",
          "name": "",
          "type": "string"
        }
      ],
      "stateMutability": "view",
      "type": "function",
      "constant": true
    },
    {
      "inputs": [],
      "name": "totalSupply",
      "outputs": [
        {
          "internalType": "uint256",
          "name": "",
          "type": "uint256"
        }
      ],
      "stateMutability": "view",
      "type": "function",
      "constant": true
    },
    {
      "inputs": [
        {
          "internalType": "address",
          "name": "from",
          "type": "address"
        },
        {
          "internalType": "address",
          "name": "to",
          "type": "address"
        },
        {
          "internalType": "uint256",
          "name": "tokenId",
          "type": "uint256"
        }
      ],
      "name": "transferFrom",
      "outputs": [],
      "stateMutability": "nonpayable",
      "type": "function"
    },
    {
      "inputs": [
        {
          "internalType": "string",
          "name": "uri",
          "type": "string"
        }
      ],
      "name": "createNFT",
      "outputs": [
        {
          "internalType": "bytes32",
          "name": "",
          "type": "bytes32"
        }
      ],
      "stateMutability": "payable",
      "type": "function",
      "payable": true
    },
    {
      "inputs": [
        {
          "internalType": "string",
          "name": "_uri",
          "type": "string"
        },
        {
          "internalType": "string",
          "name": "_desc",
          "type": "string"
        }
      ],
      "name": "nftUpload",
      "outputs": [],
      "stateMutability": "nonpayable",
      "type": "function"
    },
    {
      "inputs": [
        {
          "internalType": "uint256",
          "name": "tokenId",
          "type": "uint256"
        },
        {
          "internalType": "string",
          "name": "tokenURI",
          "type": "string"
        }
      ],
      "name": "setTokenURI",
      "outputs": [],
      "stateMutability": "nonpayable",
      "type": "function"
    }
  ],
  "bytecode": "0x60c060405260006012553480156200001657600080fd5b506040516200483938038062004839833981810160405260608110156200003c57600080fd5b8101908080519060200190929190805190602001909291908051906020019092919050505082826040518060400160405280600a81526020017f43727970746f20426f79000000000000000000000000000000000000000000008152506040518060400160405280600381526020017f43424b0000000000000000000000000000000000000000000000000000000000815250620000e76301ffc9a760e01b6200023b60201b60201c565b8160069080519060200190620000ff92919062000344565b5080600790805190602001906200011892919062000344565b50620001316380ac58cd60e01b6200023b60201b60201c565b62000149635b5e139f60e01b6200023b60201b60201c565b6200016163780e9d6360e01b6200023b60201b60201c565b50508173ffffffffffffffffffffffffffffffffffffffff1660a08173ffffffffffffffffffffffffffffffffffffffff1660601b815250508073ffffffffffffffffffffffffffffffffffffffff1660808173ffffffffffffffffffffffffffffffffffffffff1660601b81525050505080600b8190555081600f60006101000a81548173ffffffffffffffffffffffffffffffffffffffff021916908373ffffffffffffffffffffffffffffffffffffffff160217905550670de0b6b3a7640000600c819055506000600e81905550505050620003f3565b63ffffffff60e01b817bffffffffffffffffffffffffffffffffffffffffffffffffffffffff19161415620002d8576040517f08c379a000000000000000000000000000000000000000000000000000000000815260040180806020018281038252601c8152602001807f4552433136353a20696e76616c696420696e746572666163652069640000000081525060200191505060405180910390fd5b6001600080837bffffffffffffffffffffffffffffffffffffffffffffffffffffffff19167bffffffffffffffffffffffffffffffffffffffffffffffffffffffff1916815260200190815260200160002060006101000a81548160ff02191690831515021790555050565b828054600181600116156101000203166002900490600052602060002090601f016020900481019282601f106200038757805160ff1916838001178555620003b8565b82800160010185558215620003b8579182015b82811115620003b75782518255916020019190600101906200039a565b5b509050620003c79190620003cb565b5090565b620003f091905b80821115620003ec576000816000905550600101620003d2565b5090565b90565b60805160601c60a05160601c6144126200042760003980611ed452806130ed5250806125f552806130b152506144126000f3fe6080604052600436106101e35760003560e01c80634372441a1161010257806395d89b4111610095578063c87b56dd11610064578063c87b56dd14611054578063d082e38114611108578063da2ed03e14611133578063e985e9c514611202576101e3565b806395d89b4114610e2a5780639ac8c0ef14610eba578063a22cb46514610ee5578063b88d4fde14610f42576101e3565b80636c0360eb116100d15780636c0360eb14610c6057806370a0823114610cf057806394985ddd14610d555780639584f7af14610d9a576101e3565b80634372441a14610a8b5780634f6ccce714610b3f5780634f8e2fdf14610b8e5780636352211e14610be5576101e3565b8063219c0eee1161017a5780632f745c59116101495780632f745c59146108e657806335fb671c1461095557806342619f66146109e557806342842e0e14610a10576101e3565b8063219c0eee1461064757806322881f88146106c257806323b872dd14610711578063265aa6211461078c576101e3565b80630adc3c44116101b65780630adc3c44146103c05780630af2c6ca1461051f578063162094c41461054a57806318160ddd1461061c576101e3565b806301ffc9a7146101e857806306fdde031461025a578063081812fc146102ea578063095ea7b314610365575b600080fd5b3480156101f457600080fd5b506102406004803603602081101561020b57600080fd5b8101908080357bffffffffffffffffffffffffffffffffffffffffffffffffffffffff1916906020019092919050505061128b565b604051808215151515815260200191505060405180910390f35b34801561026657600080fd5b5061026f6112f2565b6040518080602001828103825283818151815260200191508051906020019080838360005b838110156102af578082015181840152602081019050610294565b50505050905090810190601f1680156102dc5780820380516001836020036101000a031916815260200191505b509250505060405180910390f35b3480156102f657600080fd5b506103236004803603602081101561030d57600080fd5b8101908080359060200190929190505050611394565b604051808273ffffffffffffffffffffffffffffffffffffffff1673ffffffffffffffffffffffffffffffffffffffff16815260200191505060405180910390f35b34801561037157600080fd5b506103be6004803603604081101561038857600080fd5b81019080803573ffffffffffffffffffffffffffffffffffffffff1690602001909291908035906020019092919050505061142f565b005b3480156103cc57600080fd5b5061051d600480360360408110156103e357600080fd5b810190808035906020019064010000000081111561040057600080fd5b82018360208201111561041257600080fd5b8035906020019184600183028401116401000000008311171561043457600080fd5b91908080601f016020809104026020016040519081016040528093929190818152602001838380828437600081840152601f19601f8201169050808301925050505050505091929192908035906020019064010000000081111561049757600080fd5b8201836020820111156104a957600080fd5b803590602001918460018302840111640100000000831117156104cb57600080fd5b91908080601f016020809104026020016040519081016040528093929190818152602001838380828437600081840152601f19601f820116905080830192505050505050509192919290505050611573565b005b34801561052b57600080fd5b50610534611823565b6040518082815260200191505060405180910390f35b34801561055657600080fd5b5061061a6004803603604081101561056d57600080fd5b81019080803590602001909291908035906020019064010000000081111561059457600080fd5b8201836020820111156105a657600080fd5b803590602001918460018302840111640100000000831117156105c857600080fd5b91908080601f016020809104026020016040519081016040528093929190818152602001838380828437600081840152601f19601f820116905080830192505050505050509192919290505050611829565b005b34801561062857600080fd5b506106316118ba565b6040518082815260200191505060405180910390f35b34801561065357600080fd5b506106806004803603602081101561066a57600080fd5b81019080803590602001909291905050506118cb565b604051808273ffffffffffffffffffffffffffffffffffffffff1673ffffffffffffffffffffffffffffffffffffffff16815260200191505060405180910390f35b3480156106ce57600080fd5b506106fb600480360360208110156106e557600080fd5b81019080803590602001909291905050506118fe565b6040518082815260200191505060405180910390f35b34801561071d57600080fd5b5061078a6004803603606081101561073457600080fd5b81019080803573ffffffffffffffffffffffffffffffffffffffff169060200190929190803573ffffffffffffffffffffffffffffffffffffffff16906020019092919080359060200190929190505050611916565b005b34801561079857600080fd5b506107c5600480360360208110156107af57600080fd5b810190808035906020019092919050505061198c565b6040518085815260200180602001806020018473ffffffffffffffffffffffffffffffffffffffff1673ffffffffffffffffffffffffffffffffffffffff168152602001838103835286818151815260200191508051906020019080838360005b83811015610841578082015181840152602081019050610826565b50505050905090810190601f16801561086e5780820380516001836020036101000a031916815260200191505b50838103825285818151815260200191508051906020019080838360005b838110156108a757808201518184015260208101905061088c565b50505050905090810190601f1680156108d45780820380516001836020036101000a031916815260200191505b50965050505050505060405180910390f35b3480156108f257600080fd5b5061093f6004803603604081101561090957600080fd5b81019080803573ffffffffffffffffffffffffffffffffffffffff16906020019092919080359060200190929190505050611b0c565b6040518082815260200191505060405180910390f35b34801561096157600080fd5b5061096a611b67565b6040518080602001828103825283818151815260200191508051906020019080838360005b838110156109aa57808201518184015260208101905061098f565b50505050905090810190601f1680156109d75780820380516001836020036101000a031916815260200191505b509250505060405180910390f35b3480156109f157600080fd5b506109fa611c05565b6040518082815260200191505060405180910390f35b348015610a1c57600080fd5b50610a8960048036036060811015610a3357600080fd5b81019080803573ffffffffffffffffffffffffffffffffffffffff169060200190929190803573ffffffffffffffffffffffffffffffffffffffff16906020019092919080359060200190929190505050611c0b565b005b348015610a9757600080fd5b50610ac460048036036020811015610aae57600080fd5b8101908080359060200190929190505050611c2b565b6040518080602001828103825283818151815260200191508051906020019080838360005b83811015610b04578082015181840152602081019050610ae9565b50505050905090810190601f168015610b315780820380516001836020036101000a031916815260200191505b509250505060405180910390f35b348015610b4b57600080fd5b50610b7860048036036020811015610b6257600080fd5b8101908080359060200190929190505050611cdb565b6040518082815260200191505060405180910390f35b348015610b9a57600080fd5b50610ba3611cfe565b604051808273ffffffffffffffffffffffffffffffffffffffff1673ffffffffffffffffffffffffffffffffffffffff16815260200191505060405180910390f35b348015610bf157600080fd5b50610c1e60048036036020811015610c0857600080fd5b8101908080359060200190929190505050611d24565b604051808273ffffffffffffffffffffffffffffffffffffffff1673ffffffffffffffffffffffffffffffffffffffff16815260200191505060405180910390f35b348015610c6c57600080fd5b50610c75611d5b565b6040518080602001828103825283818151815260200191508051906020019080838360005b83811015610cb5578082015181840152602081019050610c9a565b50505050905090810190601f168015610ce25780820380516001836020036101000a031916815260200191505b509250505060405180910390f35b348015610cfc57600080fd5b50610d3f60048036036020811015610d1357600080fd5b81019080803573ffffffffffffffffffffffffffffffffffffffff169060200190929190505050611dfd565b6040518082815260200191505060405180910390f35b348015610d6157600080fd5b50610d9860048036036040811015610d7857600080fd5b810190808035906020019092919080359060200190929190505050611ed2565b005b348015610da657600080fd5b50610daf611fa1565b6040518080602001828103825283818151815260200191508051906020019080838360005b83811015610def578082015181840152602081019050610dd4565b50505050905090810190601f168015610e1c5780820380516001836020036101000a031916815260200191505b509250505060405180910390f35b348015610e3657600080fd5b50610e3f61203f565b6040518080602001828103825283818151815260200191508051906020019080838360005b83811015610e7f578082015181840152602081019050610e64565b50505050905090810190601f168015610eac5780820380516001836020036101000a031916815260200191505b509250505060405180910390f35b348015610ec657600080fd5b50610ecf6120e1565b6040518082815260200191505060405180910390f35b348015610ef157600080fd5b50610f4060048036036040811015610f0857600080fd5b81019080803573ffffffffffffffffffffffffffffffffffffffff1690602001909291908035151590602001909291905050506120e7565b005b348015610f4e57600080fd5b5061105260048036036080811015610f6557600080fd5b81019080803573ffffffffffffffffffffffffffffffffffffffff169060200190929190803573ffffffffffffffffffffffffffffffffffffffff1690602001909291908035906020019092919080359060200190640100000000811115610fcc57600080fd5b820183602082011115610fde57600080fd5b8035906020019184600183028401116401000000008311171561100057600080fd5b91908080601f016020809104026020016040519081016040528093929190818152602001838380828437600081840152601f19601f82011690508083019250505050505050919291929050505061229f565b005b34801561106057600080fd5b5061108d6004803603602081101561107757600080fd5b8101908080359060200190929190505050612317565b6040518080602001828103825283818151815260200191508051906020019080838360005b838110156110cd5780820151818401526020810190506110b2565b50505050905090810190601f1680156110fa5780820380516001836020036101000a031916815260200191505b509250505060405180910390f35b34801561111457600080fd5b5061111d6125e8565b6040518082815260200191505060405180910390f35b6111ec6004803603602081101561114957600080fd5b810190808035906020019064010000000081111561116657600080fd5b82018360208201111561117857600080fd5b8035906020019184600183028401116401000000008311171561119a57600080fd5b91908080601f016020809104026020016040519081016040528093929190818152602001838380828437600081840152601f19601f8201169050808301925050505050505091929192905050506125ee565b6040518082815260200191505060405180910390f35b34801561120e57600080fd5b506112716004803603604081101561122557600080fd5b81019080803573ffffffffffffffffffffffffffffffffffffffff169060200190929190803573ffffffffffffffffffffffffffffffffffffffff1690602001909291905050506127fa565b604051808215151515815260200191505060405180910390f35b6000806000837bffffffffffffffffffffffffffffffffffffffffffffffffffffffff19167bffffffffffffffffffffffffffffffffffffffffffffffffffffffff1916815260200190815260200160002060009054906101000a900460ff169050919050565b606060068054600181600116156101000203166002900480601f01602080910402602001604051908101604052809291908181526020018280546001816001161561010002031660029004801561138a5780601f1061135f5761010080835404028352916020019161138a565b820191906000526020600020905b81548152906001019060200180831161136d57829003601f168201915b5050505050905090565b600061139f8261288e565b6113f4576040517f08c379a000000000000000000000000000000000000000000000000000000000815260040180806020018281038252602c8152602001806142db602c913960400191505060405180910390fd5b6004600083815260200190815260200160002060009054906101000a900473ffffffffffffffffffffffffffffffffffffffff169050919050565b600061143a82611d24565b90508073ffffffffffffffffffffffffffffffffffffffff168373ffffffffffffffffffffffffffffffffffffffff1614156114c1576040517f08c379a000000000000000000000000000000000000000000000000000000000815260040180806020018281038252602181526020018061438b6021913960400191505060405180910390fd5b8073ffffffffffffffffffffffffffffffffffffffff166114e06128ab565b73ffffffffffffffffffffffffffffffffffffffff16148061150f575061150e816115096128ab565b6127fa565b5b611564576040517f08c379a00000000000000000000000000000000000000000000000000000000081526004018080602001828103825260388152602001806142056038913960400191505060405180910390fd5b61156e83836128b3565b505050565b60008251116115ea576040517f08c379a00000000000000000000000000000000000000000000000000000000081526004018080602001828103825260178152602001807f4e465420557269206973206e6f7420726563656976656400000000000000000081525060200191505060405180910390fd5b604051806080016040528060125481526020018381526020018281526020013373ffffffffffffffffffffffffffffffffffffffff1681525060166000601254815260200190815260200160002060008201518160000155602082015181600101908051906020019061165e929190614095565b50604082015181600201908051906020019061167b929190614095565b5060608201518160030160006101000a81548173ffffffffffffffffffffffffffffffffffffffff021916908373ffffffffffffffffffffffffffffffffffffffff1602179055509050506012600081548092919060010191905055507f659d73ced800f1c3bb06aab5821b290d37911ec1d2a6602a5d32bfddfaa4f9bf6012548383336040518085815260200180602001806020018473ffffffffffffffffffffffffffffffffffffffff1673ffffffffffffffffffffffffffffffffffffffff168152602001838103835286818151815260200191508051906020019080838360005b8381101561177b578082015181840152602081019050611760565b50505050905090810190601f1680156117a85780820380516001836020036101000a031916815260200191505b50838103825285818151815260200191508051906020019080838360005b838110156117e15780820151818401526020810190506117c6565b50505050905090810190601f16801561180e5780820380516001836020036101000a031916815260200191505b50965050505050505060405180910390a15050565b60125481565b61183a6118346128ab565b8361296c565b6118ac576040517f08c379a00000000000000000000000000000000000000000000000000000000081526004018080602001828103825260208152602001807f4552433732313a2063616c6c6572206f776e6572206f7220617070726f76656481525060200191505060405180910390fd5b6118b68282612a60565b5050565b60006118c66002612aea565b905090565b60136020528060005260406000206000915054906101000a900473ffffffffffffffffffffffffffffffffffffffff1681565b60156020528060005260406000206000915090505481565b6119276119216128ab565b8261296c565b61197c576040517f08c379a00000000000000000000000000000000000000000000000000000000081526004018080602001828103825260318152602001806143ac6031913960400191505060405180910390fd5b611987838383612aff565b505050565b6016602052806000526040600020600091509050806000015490806001018054600181600116156101000203166002900480601f016020809104026020016040519081016040528092919081815260200182805460018160011615610100020316600290048015611a3e5780601f10611a1357610100808354040283529160200191611a3e565b820191906000526020600020905b815481529060010190602001808311611a2157829003601f168201915b505050505090806002018054600181600116156101000203166002900480601f016020809104026020016040519081016040528092919081815260200182805460018160011615610100020316600290048015611adc5780601f10611ab157610100808354040283529160200191611adc565b820191906000526020600020905b815481529060010190602001808311611abf57829003601f168201915b5050505050908060030160009054906101000a900473ffffffffffffffffffffffffffffffffffffffff16905084565b6000611b5f82600160008673ffffffffffffffffffffffffffffffffffffffff1673ffffffffffffffffffffffffffffffffffffffff168152602001908152602001600020612d4290919063ffffffff16565b905092915050565b60178054600181600116156101000203166002900480601f016020809104026020016040519081016040528092919081815260200182805460018160011615610100020316600290048015611bfd5780601f10611bd257610100808354040283529160200191611bfd565b820191906000526020600020905b815481529060010190602001808311611be057829003601f168201915b505050505081565b600d5481565b611c268383836040518060200160405280600081525061229f565b505050565b60146020528060005260406000206000915090508054600181600116156101000203166002900480601f016020809104026020016040519081016040528092919081815260200182805460018160011615610100020316600290048015611cd35780601f10611ca857610100808354040283529160200191611cd3565b820191906000526020600020905b815481529060010190602001808311611cb657829003601f168201915b505050505081565b600080611cf2836002612d5c90919063ffffffff16565b50905080915050919050565b600f60009054906101000a900473ffffffffffffffffffffffffffffffffffffffff1681565b6000611d5482604051806060016040528060298152602001614267602991396002612d8b9092919063ffffffff16565b9050919050565b606060098054600181600116156101000203166002900480601f016020809104026020016040519081016040528092919081815260200182805460018160011615610100020316600290048015611df35780601f10611dc857610100808354040283529160200191611df3565b820191906000526020600020905b815481529060010190602001808311611dd657829003601f168201915b5050505050905090565b60008073ffffffffffffffffffffffffffffffffffffffff168273ffffffffffffffffffffffffffffffffffffffff161415611e84576040517f08c379a000000000000000000000000000000000000000000000000000000000815260040180806020018281038252602a81526020018061423d602a913960400191505060405180910390fd5b611ecb600160008473ffffffffffffffffffffffffffffffffffffffff1673ffffffffffffffffffffffffffffffffffffffff168152602001908152602001600020612daa565b9050919050565b7f000000000000000000000000000000000000000000000000000000000000000073ffffffffffffffffffffffffffffffffffffffff163373ffffffffffffffffffffffffffffffffffffffff1614611f93576040517f08c379a000000000000000000000000000000000000000000000000000000000815260040180806020018281038252601f8152602001807f4f6e6c7920565246436f6f7264696e61746f722063616e2066756c66696c6c0081525060200191505060405180910390fd5b611f9d8282612dbf565b5050565b60108054600181600116156101000203166002900480601f0160208091040260200160405190810160405280929190818152602001828054600181600116156101000203166002900480156120375780601f1061200c57610100808354040283529160200191612037565b820191906000526020600020905b81548152906001019060200180831161201a57829003601f168201915b505050505081565b606060078054600181600116156101000203166002900480601f0160208091040260200160405190810160405280929190818152602001828054600181600116156101000203166002900480156120d75780601f106120ac576101008083540402835291602001916120d7565b820191906000526020600020905b8154815290600101906020018083116120ba57829003601f168201915b5050505050905090565b60115481565b6120ef6128ab565b73ffffffffffffffffffffffffffffffffffffffff168273ffffffffffffffffffffffffffffffffffffffff161415612190576040517f08c379a00000000000000000000000000000000000000000000000000000000081526004018080602001828103825260198152602001807f4552433732313a20617070726f766520746f2063616c6c65720000000000000081525060200191505060405180910390fd5b806005600061219d6128ab565b73ffffffffffffffffffffffffffffffffffffffff1673ffffffffffffffffffffffffffffffffffffffff16815260200190815260200160002060008473ffffffffffffffffffffffffffffffffffffffff1673ffffffffffffffffffffffffffffffffffffffff16815260200190815260200160002060006101000a81548160ff0219169083151502179055508173ffffffffffffffffffffffffffffffffffffffff1661224a6128ab565b73ffffffffffffffffffffffffffffffffffffffff167f17307eab39ab6107e8899845ad3d59bd9653f200f220920489ca2b5937696c3183604051808215151515815260200191505060405180910390a35050565b6122b06122aa6128ab565b8361296c565b612305576040517f08c379a00000000000000000000000000000000000000000000000000000000081526004018080602001828103825260318152602001806143ac6031913960400191505060405180910390fd5b61231184848484612ef4565b50505050565b60606123228261288e565b612377576040517f08c379a000000000000000000000000000000000000000000000000000000000815260040180806020018281038252602f81526020018061435c602f913960400191505060405180910390fd5b6060600860008481526020019081526020016000208054600181600116156101000203166002900480601f0160208091040260200160405190810160405280929190818152602001828054600181600116156101000203166002900480156124205780601f106123f557610100808354040283529160200191612420565b820191906000526020600020905b81548152906001019060200180831161240357829003601f168201915b505050505090506060612431611d5b565b90506000815114156124475781925050506125e3565b6000825111156125185780826040516020018083805190602001908083835b602083106124895780518252602082019150602081019050602083039250612466565b6001836020036101000a03801982511681845116808217855250505050505090500182805190602001908083835b602083106124da57805182526020820191506020810190506020830392506124b7565b6001836020036101000a03801982511681845116808217855250505050505090500192505050604051602081830303815290604052925050506125e3565b8061252285612f66565b6040516020018083805190602001908083835b602083106125585780518252602082019150602081019050602083039250612535565b6001836020036101000a03801982511681845116808217855250505050505090500182805190602001908083835b602083106125a95780518252602082019150602081019050602083039250612586565b6001836020036101000a03801982511681845116808217855250505050505090500192505050604051602081830303815290604052925050505b919050565b600e5481565b6000600c547f000000000000000000000000000000000000000000000000000000000000000073ffffffffffffffffffffffffffffffffffffffff166370a08231306040518263ffffffff1660e01b8152600401808273ffffffffffffffffffffffffffffffffffffffff1673ffffffffffffffffffffffffffffffffffffffff16815260200191505060206040518083038186803b15801561269057600080fd5b505afa1580156126a4573d6000803e3d6000fd5b505050506040513d60208110156126ba57600080fd5b810190808051906020019092919050505011612721576040517f08c379a00000000000000000000000000000000000000000000000000000000081526004018080602001828103825260298152602001806142906029913960400191505060405180910390fd5b60008260109080519060200190612739929190614095565b50612748600b54600c546130ad565b9050336013600083815260200190815260200160002060006101000a81548173ffffffffffffffffffffffffffffffffffffffff021916908373ffffffffffffffffffffffffffffffffffffffff160217905550826014600083815260200190815260200160002090805190602001906127c3929190614095565b50807f6cd153b5b53302ec9e2c181348ad2070ff9ca49f5314d13480c811d74b2db85860405160405180910390a280915050919050565b6000600560008473ffffffffffffffffffffffffffffffffffffffff1673ffffffffffffffffffffffffffffffffffffffff16815260200190815260200160002060008373ffffffffffffffffffffffffffffffffffffffff1673ffffffffffffffffffffffffffffffffffffffff16815260200190815260200160002060009054906101000a900460ff16905092915050565b60006128a48260026132bc90919063ffffffff16565b9050919050565b600033905090565b816004600083815260200190815260200160002060006101000a81548173ffffffffffffffffffffffffffffffffffffffff021916908373ffffffffffffffffffffffffffffffffffffffff160217905550808273ffffffffffffffffffffffffffffffffffffffff1661292683611d24565b73ffffffffffffffffffffffffffffffffffffffff167f8c5be1e5ebec7d5bd14f71427d1e84f3dd0314c0f7b2291e5b200ac8c7c3b92560405160405180910390a45050565b60006129778261288e565b6129cc576040517f08c379a000000000000000000000000000000000000000000000000000000000815260040180806020018281038252602c8152602001806141d9602c913960400191505060405180910390fd5b60006129d783611d24565b90508073ffffffffffffffffffffffffffffffffffffffff168473ffffffffffffffffffffffffffffffffffffffff161480612a4657508373ffffffffffffffffffffffffffffffffffffffff16612a2e84611394565b73ffffffffffffffffffffffffffffffffffffffff16145b80612a575750612a5681856127fa565b5b91505092915050565b612a698261288e565b612abe576040517f08c379a000000000000000000000000000000000000000000000000000000000815260040180806020018281038252602c815260200180614307602c913960400191505060405180910390fd5b80600860008481526020019081526020016000209080519060200190612ae5929190614095565b505050565b6000612af8826000016132d6565b9050919050565b8273ffffffffffffffffffffffffffffffffffffffff16612b1f82611d24565b73ffffffffffffffffffffffffffffffffffffffff1614612b8b576040517f08c379a00000000000000000000000000000000000000000000000000000000081526004018080602001828103825260298152602001806143336029913960400191505060405180910390fd5b600073ffffffffffffffffffffffffffffffffffffffff168273ffffffffffffffffffffffffffffffffffffffff161415612c11576040517f08c379a000000000000000000000000000000000000000000000000000000000815260040180806020018281038252602481526020018061418f6024913960400191505060405180910390fd5b612c1c8383836132e7565b612c276000826128b3565b612c7881600160008673ffffffffffffffffffffffffffffffffffffffff1673ffffffffffffffffffffffffffffffffffffffff1681526020019081526020016000206132ec90919063ffffffff16565b50612cca81600160008573ffffffffffffffffffffffffffffffffffffffff1673ffffffffffffffffffffffffffffffffffffffff16815260200190815260200160002061330690919063ffffffff16565b50612ce1818360026133209092919063ffffffff16565b50808273ffffffffffffffffffffffffffffffffffffffff168473ffffffffffffffffffffffffffffffffffffffff167fddf252ad1be2c89b69c2b068fc378daa952ba7f163c4a11628f55a4df523b3ef60405160405180910390a4505050565b6000612d518360000183613355565b60001c905092915050565b600080600080612d6f86600001866133d8565b915091508160001c8160001c8090509350935050509250929050565b6000612d9e846000018460001b84613471565b60001c90509392505050565b6000612db882600001613567565b9050919050565b60006013600084815260200190815260200160002060009054906101000a900473ffffffffffffffffffffffffffffffffffffffff1690506060601460008581526020019081526020016000208054600181600116156101000203166002900480601f016020809104026020016040519081016040528092919081815260200182805460018160011615610100020316600290048015612ea05780601f10612e7557610100808354040283529160200191612ea0565b820191906000526020600020905b815481529060010190602001808311612e8357829003601f168201915b50505050509050826011819055506000600e549050612ebf8382613578565b612ec98183612a60565b6001600e5401600e819055508060156000878152602001908152602001600020819055505050505050565b612eff848484612aff565b612f0b84848484613596565b612f60576040517f08c379a000000000000000000000000000000000000000000000000000000000815260040180806020018281038252603281526020018061415d6032913960400191505060405180910390fd5b50505050565b60606000821415612fae576040518060400160405280600181526020017f300000000000000000000000000000000000000000000000000000000000000081525090506130a8565b600082905060005b60008214612fd8578080600101915050600a8281612fd057fe5b049150612fb6565b60608167ffffffffffffffff81118015612ff157600080fd5b506040519080825280601f01601f1916602001820160405280156130245781602001600182028036833780820191505090505b50905060006001830390508593505b600084146130a057600a848161304557fe5b0660300160f81b8282806001900393508151811061305f57fe5b60200101907effffffffffffffffffffffffffffffffffffffffffffffffffffffffffffff1916908160001a905350600a848161309857fe5b049350613033565b819450505050505b919050565b60007f000000000000000000000000000000000000000000000000000000000000000073ffffffffffffffffffffffffffffffffffffffff16634000aea07f00000000000000000000000000000000000000000000000000000000000000008486600060405160200180838152602001828152602001925050506040516020818303038152906040526040518463ffffffff1660e01b8152600401808473ffffffffffffffffffffffffffffffffffffffff1673ffffffffffffffffffffffffffffffffffffffff16815260200183815260200180602001828103825283818151815260200191508051906020019080838360005b838110156131bd5780820151818401526020810190506131a2565b50505050905090810190601f1680156131ea5780820380516001836020036101000a031916815260200191505b50945050505050602060405180830381600087803b15801561320b57600080fd5b505af115801561321f573d6000803e3d6000fd5b505050506040513d602081101561323557600080fd5b810190808051906020019092919050505050600061326984600030600a6000898152602001908152602001600020546137db565b90506132926001600a60008781526020019081526020016000205461385590919063ffffffff16565b600a6000868152602001908152602001600020819055506132b384826138dd565b91505092915050565b60006132ce836000018360001b613916565b905092915050565b600081600001805490509050919050565b505050565b60006132fe836000018360001b613939565b905092915050565b6000613318836000018360001b613a21565b905092915050565b600061334c846000018460001b8473ffffffffffffffffffffffffffffffffffffffff1660001b613a91565b90509392505050565b6000818360000180549050116133b6576040517f08c379a000000000000000000000000000000000000000000000000000000000815260040180806020018281038252602281526020018061413b6022913960400191505060405180910390fd5b8260000182815481106133c557fe5b9060005260206000200154905092915050565b6000808284600001805490501161343a576040517f08c379a00000000000000000000000000000000000000000000000000000000081526004018080602001828103825260228152602001806142b96022913960400191505060405180910390fd5b600084600001848154811061344b57fe5b906000526020600020906002020190508060000154816001015492509250509250929050565b60008084600101600085815260200190815260200160002054905060008114158390613538576040517f08c379a00000000000000000000000000000000000000000000000000000000081526004018080602001828103825283818151815260200191508051906020019080838360005b838110156134fd5780820151818401526020810190506134e2565b50505050905090810190601f16801561352a5780820380516001836020036101000a031916815260200191505b509250505060405180910390fd5b5084600001600182038154811061354b57fe5b9060005260206000209060020201600101549150509392505050565b600081600001805490509050919050565b613592828260405180602001604052806000815250613b6d565b5050565b60006135b78473ffffffffffffffffffffffffffffffffffffffff16613bde565b6135c457600190506137d3565b606061375a63150b7a0260e01b6135d96128ab565b888787604051602401808573ffffffffffffffffffffffffffffffffffffffff1673ffffffffffffffffffffffffffffffffffffffff1681526020018473ffffffffffffffffffffffffffffffffffffffff1673ffffffffffffffffffffffffffffffffffffffff16815260200183815260200180602001828103825283818151815260200191508051906020019080838360005b8381101561368957808201518184015260208101905061366e565b50505050905090810190601f1680156136b65780820380516001836020036101000a031916815260200191505b5095505050505050604051602081830303815290604052907bffffffffffffffffffffffffffffffffffffffffffffffffffffffff19166020820180517bffffffffffffffffffffffffffffffffffffffffffffffffffffffff838183161783525050505060405180606001604052806032815260200161415d603291398773ffffffffffffffffffffffffffffffffffffffff16613bf19092919063ffffffff16565b9050600081806020019051602081101561377357600080fd5b8101908080519060200190929190505050905063150b7a0260e01b7bffffffffffffffffffffffffffffffffffffffffffffffffffffffff1916817bffffffffffffffffffffffffffffffffffffffffffffffffffffffff191614925050505b949350505050565b600084848484604051602001808581526020018481526020018373ffffffffffffffffffffffffffffffffffffffff1673ffffffffffffffffffffffffffffffffffffffff1681526020018281526020019450505050506040516020818303038152906040528051906020012060001c9050949350505050565b6000808284019050838110156138d3576040517f08c379a000000000000000000000000000000000000000000000000000000000815260040180806020018281038252601b8152602001807f536166654d6174683a206164646974696f6e206f766572666c6f77000000000081525060200191505060405180910390fd5b8091505092915050565b60008282604051602001808381526020018281526020019250505060405160208183030381529060405280519060200120905092915050565b600080836001016000848152602001908152602001600020541415905092915050565b60008083600101600084815260200190815260200160002054905060008114613a15576000600182039050600060018660000180549050039050600086600001828154811061398457fe5b90600052602060002001549050808760000184815481106139a157fe5b90600052602060002001819055506001830187600101600083815260200190815260200160002081905550866000018054806139d957fe5b60019003818190600052602060002001600090559055866001016000878152602001908152602001600020600090556001945050505050613a1b565b60009150505b92915050565b6000613a2d8383613c09565b613a86578260000182908060018154018082558091505060019003906000526020600020016000909190919091505582600001805490508360010160008481526020019081526020016000208190555060019050613a8b565b600090505b92915050565b6000808460010160008581526020019081526020016000205490506000811415613b3857846000016040518060400160405280868152602001858152509080600181540180825580915050600190039060005260206000209060020201600090919091909150600082015181600001556020820151816001015550508460000180549050856001016000868152602001908152602001600020819055506001915050613b66565b82856000016001830381548110613b4b57fe5b90600052602060002090600202016001018190555060009150505b9392505050565b613b778383613c2c565b613b846000848484613596565b613bd9576040517f08c379a000000000000000000000000000000000000000000000000000000000815260040180806020018281038252603281526020018061415d6032913960400191505060405180910390fd5b505050565b600080823b905060008111915050919050565b6060613c008484600085613e20565b90509392505050565b600080836001016000848152602001908152602001600020541415905092915050565b600073ffffffffffffffffffffffffffffffffffffffff168273ffffffffffffffffffffffffffffffffffffffff161415613ccf576040517f08c379a00000000000000000000000000000000000000000000000000000000081526004018080602001828103825260208152602001807f4552433732313a206d696e7420746f20746865207a65726f206164647265737381525060200191505060405180910390fd5b613cd88161288e565b15613d4b576040517f08c379a000000000000000000000000000000000000000000000000000000000815260040180806020018281038252601c8152602001807f4552433732313a20746f6b656e20616c7265616479206d696e7465640000000081525060200191505060405180910390fd5b613d57600083836132e7565b613da881600160008573ffffffffffffffffffffffffffffffffffffffff1673ffffffffffffffffffffffffffffffffffffffff16815260200190815260200160002061330690919063ffffffff16565b50613dbf818360026133209092919063ffffffff16565b50808273ffffffffffffffffffffffffffffffffffffffff16600073ffffffffffffffffffffffffffffffffffffffff167fddf252ad1be2c89b69c2b068fc378daa952ba7f163c4a11628f55a4df523b3ef60405160405180910390a45050565b606082471015613e7b576040517f08c379a00000000000000000000000000000000000000000000000000000000081526004018080602001828103825260268152602001806141b36026913960400191505060405180910390fd5b613e8485613bde565b613ef6576040517f08c379a000000000000000000000000000000000000000000000000000000000815260040180806020018281038252601d8152602001807f416464726573733a2063616c6c20746f206e6f6e2d636f6e747261637400000081525060200191505060405180910390fd5b600060608673ffffffffffffffffffffffffffffffffffffffff1685876040518082805190602001908083835b60208310613f465780518252602082019150602081019050602083039250613f23565b6001836020036101000a03801982511681845116808217855250505050505090500191505060006040518083038185875af1925050503d8060008114613fa8576040519150601f19603f3d011682016040523d82523d6000602084013e613fad565b606091505b5091509150613fbd828286613fc9565b92505050949350505050565b60608315613fd95782905061408e565b600083511115613fec5782518084602001fd5b816040517f08c379a00000000000000000000000000000000000000000000000000000000081526004018080602001828103825283818151815260200191508051906020019080838360005b83811015614053578082015181840152602081019050614038565b50505050905090810190601f1680156140805780820380516001836020036101000a031916815260200191505b509250505060405180910390fd5b9392505050565b828054600181600116156101000203166002900490600052602060002090601f016020900481019282601f106140d657805160ff1916838001178555614104565b82800160010185558215614104579182015b828111156141035782518255916020019190600101906140e8565b5b5090506141119190614115565b5090565b61413791905b8082111561413357600081600090555060010161411b565b5090565b9056fe456e756d657261626c655365743a20696e646578206f7574206f6620626f756e64734552433732313a207472616e7366657220746f206e6f6e20455243373231526563656976657220696d706c656d656e7465724552433732313a207472616e7366657220746f20746865207a65726f2061646472657373416464726573733a20696e73756666696369656e742062616c616e636520666f722063616c6c4552433732313a206f70657261746f7220717565727920666f72206e6f6e6578697374656e7420746f6b656e4552433732313a20617070726f76652063616c6c6572206973206e6f74206f776e6572206e6f7220617070726f76656420666f7220616c6c4552433732313a2062616c616e636520717565727920666f7220746865207a65726f20616464726573734552433732313a206f776e657220717565727920666f72206e6f6e6578697374656e7420746f6b656e4e6f7420656e6f756768204c494e4b202d2066696c6c20636f6e74726163742077697468204c696e6b456e756d657261626c654d61703a20696e646578206f7574206f6620626f756e64734552433732313a20617070726f76656420717565727920666f72206e6f6e6578697374656e7420746f6b656e4552433732314d657461646174613a2055524920736574206f66206e6f6e6578697374656e7420746f6b656e4552433732313a207472616e73666572206f6620746f6b656e2074686174206973206e6f74206f776e4552433732314d657461646174613a2055524920717565727920666f72206e6f6e6578697374656e7420746f6b656e4552433732313a20617070726f76616c20746f2063757272656e74206f776e65724552433732313a207472616e736665722063616c6c6572206973206e6f74206f776e6572206e6f7220617070726f766564a2646970667358221220a57a9bcd7d075c3c261e885cb0a9241e55dec8182facbe6cb3204cb22c96555764736f6c63430006060033",
  "immutableReferences": {
    "359": [
      {
        "length": 32,
        "start": 9717
      },
      {
        "length": 32,
        "start": 12465
      }
    ],
    "361": [
      {
        "length": 32,
        "start": 7892
      },
      {
        "length": 32,
        "start": 12525
      }
    ]
  },
  "source": "// SPDX-License-Identifier: MIT\npragma solidity >=0.4.22 <0.9.0;\n\n\nimport \"@openzeppelin/contracts/token/ERC721/ERC721.sol\";\nimport \"@chainlink/contracts/src/v0.6/VRFConsumerBase.sol\";\n\ncontract AdvanceCollectibles is ERC721, VRFConsumerBase {\n//pragma solidity >=0.6.0 <0.8.0;conLi\n    bytes32 internal keyHash;\n    uint256 internal fee;\n    uint256 public randomResult;\n    uint256 public tokenCounter;\n    address public LinkToken;\n    string public checkEx;\n    uint256 public randNum;\n    uint public nftCount = 0;\n\n    event RequestedRandomness(bytes32 requestId);\n    event RequestCollectible(bytes32 indexed requestId);\n    event nftUploadedEvent(uint id, string nftUri, string desc, address uploader);\n\n    mapping(bytes32 => address) public requestIdToSender;\n    mapping(bytes32 => string) public requestIdToTokenURI;\n    //mapping(uint256 => NFT) public tokenIdToNft;\n    mapping(bytes32 => uint256) public requestIdToTokenId;\n    mapping(uint => NFT) public nfts;\n\n    struct NFT{\n        uint id;\n        string nftUri;\n        string desc;\n        address author;\n    }\n\n    constructor (\n            address  _vrfCoordinatorAddress,\n            address _linkTokenAddress,\n            bytes32 _keyHash\n            \n        ) public\n    VRFConsumerBase(\n            _vrfCoordinatorAddress,\n            _linkTokenAddress \n        )\n    ERC721(\n        \"Crypto Boy\",\n        \"CBK\"\n        )\n    {\n        keyHash = _keyHash;\n        LinkToken = _linkTokenAddress;\n        fee = 1.0 * 10 ** 18;\n        tokenCounter = 0;\n    }\n\n    string public mockVar;\n    event myEvent(bytes32 requestId);\n\n    // function getrequestIdToSender(bytes32 requestId) view public returns(address){\n    //     return requestIdToSender[requestId];\n    // }\n    // function getrequestIdToTokenURI(bytes32 requestId) view public returns(string memory){\n    //     return requestIdToTokenURI[requestId];\n    // }\n    // function gettokenIdToNft(uint32 tokenId) view public returns(Breed){\n    //     return tokenIdToNft[tokenId];\n    // }\n    // function gettokenIdToNftStr(uint32 tokenId) view public returns(string memory){\n    //     Breed breed = Breed(tokenId);\n\n    //     if (Breed.PUG == breed) return \"PUG\";\n    //     if (Breed.SHIBA_INU == breed) return \"SHIBA_INU\";\n    //     if (Breed.ST_BERNARD == breed) return \"ST_BERNARD\";\n    // }\n    // function getrequestIdToTokenId(bytes32 requestId) view public returns(uint256){\n    //     return requestIdToTokenId[requestId];\n    // }\n\n\n    function createNFT(string memory uri) public payable returns (bytes32){\n        require(LINK.balanceOf(address(this)) > fee, \"Not enough LINK - fill contract with Link\");\n        bytes32 requestId;\n        checkEx = uri;\n\n        requestId = requestRandomness(keyHash, fee);\n        requestIdToSender[requestId] = msg.sender;\n        requestIdToTokenURI[requestId] = uri;\n        emit RequestCollectible(requestId);   \n    \n        return requestId;\n    }\n//Whenever to set TokenUri call this function...\n    function nftUpload(string memory _uri, string memory _desc) public{\n        require(bytes(_uri).length > 0, 'NFT Uri is not received');\n\n        nfts[nftCount] = NFT(nftCount, _uri, _desc, msg.sender );\n        nftCount++;\n\n        emit nftUploadedEvent(nftCount, _uri, _desc, msg.sender);\n    }\n\n    /**\n     * Callback function used by VRF Coordinator\n     */\n    function fulfillRandomness(bytes32 requestId, uint256 randomNumber) internal override {\n        address nftOwner = requestIdToSender[requestId];\n        string memory tokenURI = requestIdToTokenURI[requestId];\n        randNum = randomNumber;\n        uint256 newItemId = tokenCounter;\n\n        _safeMint(nftOwner, newItemId);\n        _setTokenURI(newItemId, tokenURI);\n        tokenCounter = tokenCounter + 1;    \n        //tokenIdToNft[newItemId] = nfts[newItemId];\n        requestIdToTokenId[requestId] = newItemId;\n    }\n\n    function setTokenURI(uint256 tokenId, string memory tokenURI) public{\n        require(_isApprovedOrOwner(_msgSender(), tokenId), \"ERC721: caller owner or approved\");\n        _setTokenURI(tokenId, tokenURI);\n    }\n}\n",
  "sourcePath": "/home/sulaman/Documents/BlockchainProjects/startup/startup/src/contracts/AdvanceCollectibles.sol",
  "compiler": {
    "name": "solc",
    "version": "0.6.6+commit.6c089d02.Emscripten.clang"
  },
  "schemaVersion": "3.4.1",
  "updatedAt": "2021-09-05T19:54:42.913Z",
  "networkType": "ethereum",
  "devdoc": {
    "methods": {
      "approve(address,uint256)": {
        "details": "See {IERC721-approve}."
      },
      "balanceOf(address)": {
        "details": "See {IERC721-balanceOf}."
      },
      "baseURI()": {
        "details": "Returns the base URI set via {_setBaseURI}. This will be automatically added as a prefix in {tokenURI} to each token's URI, or to the token ID if no specific URI is set for that token ID."
      },
      "getApproved(uint256)": {
        "details": "See {IERC721-getApproved}."
      },
      "isApprovedForAll(address,address)": {
        "details": "See {IERC721-isApprovedForAll}."
      },
      "name()": {
        "details": "See {IERC721Metadata-name}."
      },
      "ownerOf(uint256)": {
        "details": "See {IERC721-ownerOf}."
      },
      "safeTransferFrom(address,address,uint256)": {
        "details": "See {IERC721-safeTransferFrom}."
      },
      "safeTransferFrom(address,address,uint256,bytes)": {
        "details": "See {IERC721-safeTransferFrom}."
      },
      "setApprovalForAll(address,bool)": {
        "details": "See {IERC721-setApprovalForAll}."
      },
      "supportsInterface(bytes4)": {
        "details": "See {IERC165-supportsInterface}.     * Time complexity O(1), guaranteed to always use less than 30 000 gas."
      },
      "symbol()": {
        "details": "See {IERC721Metadata-symbol}."
      },
      "tokenByIndex(uint256)": {
        "details": "See {IERC721Enumerable-tokenByIndex}."
      },
      "tokenOfOwnerByIndex(address,uint256)": {
        "details": "See {IERC721Enumerable-tokenOfOwnerByIndex}."
      },
      "tokenURI(uint256)": {
        "details": "See {IERC721Metadata-tokenURI}."
      },
      "totalSupply()": {
        "details": "See {IERC721Enumerable-totalSupply}."
      },
      "transferFrom(address,address,uint256)": {
        "details": "See {IERC721-transferFrom}."
      }
    }
  },
  "userdoc": {
    "methods": {}
  }
}